{
  "contractName": "Medium",
  "abi": [
    {
      "anonymous": false,
      "inputs": [
        {
          "components": [
            {
              "internalType": "uint256",
              "name": "blockNumber",
              "type": "uint256"
            },
            {
              "components": [
                {
                  "internalType": "address",
                  "name": "id",
                  "type": "address"
                },
                {
                  "internalType": "string",
                  "name": "name",
                  "type": "string"
                },
                {
                  "internalType": "string",
                  "name": "email",
                  "type": "string"
                }
              ],
              "internalType": "struct Medium.UserDetail",
              "name": "createdBy",
              "type": "tuple"
            },
            {
              "internalType": "bytes32",
              "name": "id",
              "type": "bytes32"
            },
            {
              "internalType": "string",
              "name": "title",
              "type": "string"
            },
            {
              "internalType": "uint256",
              "name": "publishedAt",
              "type": "uint256"
            },
            {
              "internalType": "uint256",
              "name": "lastUpdatedAt",
              "type": "uint256"
            },
            {
              "internalType": "string",
              "name": "content",
              "type": "string"
            }
          ],
          "indexed": false,
          "internalType": "struct Medium.Blog",
          "name": "thisBlog",
          "type": "tuple"
        }
      ],
      "name": "blogPublished",
      "type": "event"
    },
    {
      "anonymous": false,
      "inputs": [
        {
          "indexed": false,
          "internalType": "bytes32",
          "name": "id",
          "type": "bytes32"
        },
        {
          "components": [
            {
              "internalType": "uint256",
              "name": "blockNumber",
              "type": "uint256"
            },
            {
              "components": [
                {
                  "internalType": "address",
                  "name": "id",
                  "type": "address"
                },
                {
                  "internalType": "string",
                  "name": "name",
                  "type": "string"
                },
                {
                  "internalType": "string",
                  "name": "email",
                  "type": "string"
                }
              ],
              "internalType": "struct Medium.UserDetail",
              "name": "createdBy",
              "type": "tuple"
            },
            {
              "internalType": "bytes32",
              "name": "id",
              "type": "bytes32"
            },
            {
              "internalType": "string",
              "name": "title",
              "type": "string"
            },
            {
              "internalType": "uint256",
              "name": "publishedAt",
              "type": "uint256"
            },
            {
              "internalType": "uint256",
              "name": "lastUpdatedAt",
              "type": "uint256"
            },
            {
              "internalType": "string",
              "name": "content",
              "type": "string"
            }
          ],
          "indexed": false,
          "internalType": "struct Medium.Blog",
          "name": "blog",
          "type": "tuple"
        }
      ],
      "name": "blogUpdated",
      "type": "event"
    },
    {
      "anonymous": false,
      "inputs": [
        {
          "indexed": false,
          "internalType": "address",
          "name": "id",
          "type": "address"
        },
        {
          "indexed": false,
          "internalType": "string",
          "name": "name",
          "type": "string"
        },
        {
          "indexed": false,
          "internalType": "string",
          "name": "email",
          "type": "string"
        }
      ],
      "name": "userCreated",
      "type": "event"
    },
    {
      "anonymous": false,
      "inputs": [
        {
          "indexed": false,
          "internalType": "address",
          "name": "userId",
          "type": "address"
        },
        {
          "components": [
            {
              "internalType": "uint256",
              "name": "blockNumber",
              "type": "uint256"
            },
            {
              "components": [
                {
                  "internalType": "address",
                  "name": "id",
                  "type": "address"
                },
                {
                  "internalType": "string",
                  "name": "name",
                  "type": "string"
                },
                {
                  "internalType": "string",
                  "name": "email",
                  "type": "string"
                }
              ],
              "internalType": "struct Medium.UserDetail",
              "name": "createdBy",
              "type": "tuple"
            },
            {
              "internalType": "bytes32",
              "name": "id",
              "type": "bytes32"
            },
            {
              "internalType": "string",
              "name": "title",
              "type": "string"
            },
            {
              "internalType": "uint256",
              "name": "publishedAt",
              "type": "uint256"
            },
            {
              "internalType": "uint256",
              "name": "lastUpdatedAt",
              "type": "uint256"
            },
            {
              "internalType": "string",
              "name": "content",
              "type": "string"
            }
          ],
          "indexed": false,
          "internalType": "struct Medium.Blog",
          "name": "blog",
          "type": "tuple"
        }
      ],
      "name": "userToBlogMappingUpdated",
      "type": "event"
    },
    {
      "constant": true,
      "inputs": [
        {
          "internalType": "address",
          "name": "id",
          "type": "address"
        }
      ],
      "name": "getUser",
      "outputs": [
        {
          "components": [
            {
              "internalType": "address",
              "name": "id",
              "type": "address"
            },
            {
              "internalType": "string",
              "name": "name",
              "type": "string"
            },
            {
              "internalType": "string",
              "name": "email",
              "type": "string"
            }
          ],
          "internalType": "struct Medium.UserDetail",
          "name": "",
          "type": "tuple"
        }
      ],
      "payable": false,
      "stateMutability": "view",
      "type": "function"
    },
    {
      "constant": false,
      "inputs": [
        {
          "internalType": "string",
          "name": "name",
          "type": "string"
        },
        {
          "internalType": "string",
          "name": "email",
          "type": "string"
        },
        {
          "internalType": "string",
          "name": "title",
          "type": "string"
        },
        {
          "internalType": "string",
          "name": "content",
          "type": "string"
        }
      ],
      "name": "createBlog",
      "outputs": [],
      "payable": false,
      "stateMutability": "nonpayable",
      "type": "function"
    },
    {
      "constant": false,
      "inputs": [
        {
          "internalType": "bytes32",
          "name": "blogId",
          "type": "bytes32"
        },
        {
          "internalType": "string",
          "name": "title",
          "type": "string"
        },
        {
          "internalType": "string",
          "name": "content",
          "type": "string"
        }
      ],
      "name": "updateBlog",
      "outputs": [],
      "payable": false,
      "stateMutability": "nonpayable",
      "type": "function"
    },
    {
      "constant": true,
      "inputs": [
        {
          "internalType": "address",
          "name": "userId",
          "type": "address"
        }
      ],
      "name": "getBlogIdsByUserId",
      "outputs": [
        {
          "internalType": "bytes32[]",
          "name": "",
          "type": "bytes32[]"
        }
      ],
      "payable": false,
      "stateMutability": "view",
      "type": "function"
    },
    {
      "constant": true,
      "inputs": [],
      "name": "getAllBlogIds",
      "outputs": [
        {
          "internalType": "bytes32[]",
          "name": "",
          "type": "bytes32[]"
        }
      ],
      "payable": false,
      "stateMutability": "view",
      "type": "function"
    },
    {
      "constant": true,
      "inputs": [
        {
          "internalType": "bytes32[]",
          "name": "idList",
          "type": "bytes32[]"
        }
      ],
      "name": "getBlogsByIds",
      "outputs": [
        {
          "components": [
            {
              "internalType": "uint256",
              "name": "blockNumber",
              "type": "uint256"
            },
            {
              "components": [
                {
                  "internalType": "address",
                  "name": "id",
                  "type": "address"
                },
                {
                  "internalType": "string",
                  "name": "name",
                  "type": "string"
                },
                {
                  "internalType": "string",
                  "name": "email",
                  "type": "string"
                }
              ],
              "internalType": "struct Medium.UserDetail",
              "name": "createdBy",
              "type": "tuple"
            },
            {
              "internalType": "bytes32",
              "name": "id",
              "type": "bytes32"
            },
            {
              "internalType": "string",
              "name": "title",
              "type": "string"
            },
            {
              "internalType": "uint256",
              "name": "publishedAt",
              "type": "uint256"
            },
            {
              "internalType": "uint256",
              "name": "lastUpdatedAt",
              "type": "uint256"
            },
            {
              "internalType": "string",
              "name": "content",
              "type": "string"
            }
          ],
          "internalType": "struct Medium.Blog[]",
          "name": "",
          "type": "tuple[]"
        }
      ],
      "payable": false,
      "stateMutability": "view",
      "type": "function"
    }
  ],
  "bytecode": "0x608060405234801561001057600080fd5b506122af806100206000396000f3fe608060405234801561001057600080fd5b50600436106100625760003560e01c8063240da8ed1461006757806339908d8c1461008557806355590cac146100a15780636f77926b146100d15780638c22bc35146101015780638f4d179c14610131575b600080fd5b61006f61014d565b60405161007c9190611e0e565b60405180910390f35b61009f600480360361009a919081019061149b565b6101a5565b005b6100bb60048036036100b69190810190611431565b6103f6565b6040516100c89190611e0e565b60405180910390f35b6100eb60048036036100e69190810190611431565b61048c565b6040516100f89190611f84565b60405180910390f35b61011b6004803603610116919081019061145a565b61067f565b6040516101289190611e30565b60405180910390f35b61014b6004803603610146919081019061151a565b610a48565b005b6060600280548060200260200160405190810160405280929190818152602001828054801561019b57602002820191906000526020600020905b815481526020019060010190808311610187575b5050505050905090565b6000801b8314156101eb576040517f08c379a00000000000000000000000000000000000000000000000000000000081526004016101e290611ea2565b60405180910390fd5b600082511161022f576040517f08c379a000000000000000000000000000000000000000000000000000000000815260040161022690611f02565b60405180910390fd5b6000815111610273576040517f08c379a000000000000000000000000000000000000000000000000000000000815260040161026a90611ee2565b60405180910390fd5b6001600084815260200190815260200160002060010160000160009054906101000a900473ffffffffffffffffffffffffffffffffffffffff1673ffffffffffffffffffffffffffffffffffffffff163373ffffffffffffffffffffffffffffffffffffffff161461031a576040517f08c379a000000000000000000000000000000000000000000000000000000000815260040161031190611ec2565b60405180910390fd5b81600160008581526020019081526020016000206005019080519060200190610344929190611111565b508060016000858152602001908152602001600020600801908051906020019061036f929190611111565b504260016000858152602001908152602001600020600701819055504360016000858152602001908152602001600020600001819055507f9f8e19948122339eb01c65b074dafc35f9466d72407725172934ff44de7263d783600160008681526020019081526020016000206040516103e9929190611e52565b60405180910390a1505050565b60606000808373ffffffffffffffffffffffffffffffffffffffff1673ffffffffffffffffffffffffffffffffffffffff16815260200190815260200160002080548060200260200160405190810160405280929190818152602001828054801561048057602002820191906000526020600020905b81548152602001906001019080831161046c575b50505050509050919050565b610494611191565b600360008373ffffffffffffffffffffffffffffffffffffffff1673ffffffffffffffffffffffffffffffffffffffff1681526020019081526020016000206040518060600160405290816000820160009054906101000a900473ffffffffffffffffffffffffffffffffffffffff1673ffffffffffffffffffffffffffffffffffffffff1673ffffffffffffffffffffffffffffffffffffffff168152602001600182018054600181600116156101000203166002900480601f0160208091040260200160405190810160405280929190818152602001828054600181600116156101000203166002900480156105cd5780601f106105a2576101008083540402835291602001916105cd565b820191906000526020600020905b8154815290600101906020018083116105b057829003601f168201915b50505050508152602001600282018054600181600116156101000203166002900480601f01602080910402602001604051908101604052809291908181526020018280546001816001161561010002031660029004801561066f5780601f106106445761010080835404028352916020019161066f565b820191906000526020600020905b81548152906001019060200180831161065257829003601f168201915b5050505050815250509050919050565b60608082516040519080825280602002602001820160405280156106bd57816020015b6106aa6111c8565b8152602001906001900390816106a25790505b50905060008090505b8351811015610a3e57600160008583815181106106df57fe5b602002602001015181526020019081526020016000206040518060e001604052908160008201548152602001600182016040518060600160405290816000820160009054906101000a900473ffffffffffffffffffffffffffffffffffffffff1673ffffffffffffffffffffffffffffffffffffffff1673ffffffffffffffffffffffffffffffffffffffff168152602001600182018054600181600116156101000203166002900480601f0160208091040260200160405190810160405280929190818152602001828054600181600116156101000203166002900480156108095780601f106107de57610100808354040283529160200191610809565b820191906000526020600020905b8154815290600101906020018083116107ec57829003601f168201915b50505050508152602001600282018054600181600116156101000203166002900480601f0160208091040260200160405190810160405280929190818152602001828054600181600116156101000203166002900480156108ab5780601f10610880576101008083540402835291602001916108ab565b820191906000526020600020905b81548152906001019060200180831161088e57829003601f168201915b505050505081525050815260200160048201548152602001600582018054600181600116156101000203166002900480601f01602080910402602001604051908101604052809291908181526020018280546001816001161561010002031660029004801561095b5780601f106109305761010080835404028352916020019161095b565b820191906000526020600020905b81548152906001019060200180831161093e57829003601f168201915b505050505081526020016006820154815260200160078201548152602001600882018054600181600116156101000203166002900480601f016020809104026020016040519081016040528092919081815260200182805460018160011615610100020316600290048015610a115780601f106109e657610100808354040283529160200191610a11565b820191906000526020600020905b8154815290600101906020018083116109f457829003601f168201915b505050505081525050828281518110610a2657fe5b602002602001018190525080806001019150506106c6565b5080915050919050565b610a50611191565b610a593361048c565b90503373ffffffffffffffffffffffffffffffffffffffff16816000015173ffffffffffffffffffffffffffffffffffffffff1614610aa857610a9c8585610df6565b610aa53361048c565b90505b6000835111610aec576040517f08c379a0000000000000000000000000000000000000000000000000000000008152600401610ae390611f02565b60405180910390fd5b6000825111610b30576040517f08c379a0000000000000000000000000000000000000000000000000000000008152600401610b2790611ee2565b60405180910390fd5b60004290506000818360000151604051602001610b4e929190611d6d565b604051602081830303815290604052805190602001209050610b6e61120e565b6040518060e001604052804381526020018581526020018381526020018781526020018481526020018481526020018681525090508060016000836040015181526020019081526020016000206000820151816000015560208201518160010160008201518160000160006101000a81548173ffffffffffffffffffffffffffffffffffffffff021916908373ffffffffffffffffffffffffffffffffffffffff1602179055506020820151816001019080519060200190610c31929190611254565b506040820151816002019080519060200190610c4e929190611254565b505050604082015181600401556060820151816005019080519060200190610c77929190611254565b506080820151816006015560a0820151816007015560c0820151816008019080519060200190610ca8929190611254565b509050506002816040015190806001815401808255809150509060018203906000526020600020016000909192909190915055507fa5d6eacf122b69e853a1c052176460d956a8a2a74ead587e6f10c4cec7bd88db6001600083604001518152602001908152602001600020604051610d219190611f62565b60405180910390a1600080856000015173ffffffffffffffffffffffffffffffffffffffff1673ffffffffffffffffffffffffffffffffffffffff168152602001908152602001600020816040015190806001815401808255809150509060018203906000526020600020016000909192909190915055507f3822ce690eb6d7646b366aa9cb935813a1fe10dba216baa14b848679ec89250c84600001516001600084604001518152602001908152602001600020604051610de4929190611dde565b60405180910390a15050505050505050565b6000825111610e3a576040517f08c379a0000000000000000000000000000000000000000000000000000000008152600401610e3190611e82565b60405180910390fd5b6000815111610e7e576040517f08c379a0000000000000000000000000000000000000000000000000000000008152600401610e7590611f42565b60405180910390fd5b600073ffffffffffffffffffffffffffffffffffffffff163373ffffffffffffffffffffffffffffffffffffffff161415610eee576040517f08c379a0000000000000000000000000000000000000000000000000000000008152600401610ee590611f22565b60405180910390fd5b610ef6611191565b60405180606001604052803373ffffffffffffffffffffffffffffffffffffffff16815260200184815260200183815250905080600360003373ffffffffffffffffffffffffffffffffffffffff1673ffffffffffffffffffffffffffffffffffffffff16815260200190815260200160002060008201518160000160006101000a81548173ffffffffffffffffffffffffffffffffffffffff021916908373ffffffffffffffffffffffffffffffffffffffff1602179055506020820151816001019080519060200190610fcc929190611254565b506040820151816002019080519060200190610fe9929190611254565b509050507fef068de4fdcddb11dcf26da9d4527c834ab065cbdefe220fc5c42e400f301a97600360003373ffffffffffffffffffffffffffffffffffffffff1673ffffffffffffffffffffffffffffffffffffffff16815260200190815260200160002060000160009054906101000a900473ffffffffffffffffffffffffffffffffffffffff16600360003373ffffffffffffffffffffffffffffffffffffffff1673ffffffffffffffffffffffffffffffffffffffff168152602001908152602001600020600101600360003373ffffffffffffffffffffffffffffffffffffffff1673ffffffffffffffffffffffffffffffffffffffff16815260200190815260200160002060020160405161110493929190611d99565b60405180910390a1505050565b828054600181600116156101000203166002900490600052602060002090601f016020900481019282601f1061115257805160ff1916838001178555611180565b82800160010185558215611180579182015b8281111561117f578251825591602001919060010190611164565b5b50905061118d91906112d4565b5090565b6040518060600160405280600073ffffffffffffffffffffffffffffffffffffffff16815260200160608152602001606081525090565b6040518060e00160405280600081526020016111e26112f9565b815260200160008019168152602001606081526020016000815260200160008152602001606081525090565b6040518060e00160405280600081526020016112286112f9565b815260200160008019168152602001606081526020016000815260200160008152602001606081525090565b828054600181600116156101000203166002900490600052602060002090601f016020900481019282601f1061129557805160ff19168380011785556112c3565b828001600101855582156112c3579182015b828111156112c25782518255916020019190600101906112a7565b5b5090506112d091906112d4565b5090565b6112f691905b808211156112f25760008160009055506001016112da565b5090565b90565b6040518060600160405280600073ffffffffffffffffffffffffffffffffffffffff16815260200160608152602001606081525090565b60008135905061133f8161223e565b92915050565b600082601f83011261135657600080fd5b813561136961136482611fd3565b611fa6565b9150818183526020840193506020810190508385602084028201111561138e57600080fd5b60005b838110156113be57816113a488826113c8565b845260208401935060208301925050600181019050611391565b5050505092915050565b6000813590506113d781612255565b92915050565b600082601f8301126113ee57600080fd5b81356114016113fc82611ffb565b611fa6565b9150808252602083016020830185838301111561141d57600080fd5b611428838284612155565b50505092915050565b60006020828403121561144357600080fd5b600061145184828501611330565b91505092915050565b60006020828403121561146c57600080fd5b600082013567ffffffffffffffff81111561148657600080fd5b61149284828501611345565b91505092915050565b6000806000606084860312156114b057600080fd5b60006114be868287016113c8565b935050602084013567ffffffffffffffff8111156114db57600080fd5b6114e7868287016113dd565b925050604084013567ffffffffffffffff81111561150457600080fd5b611510868287016113dd565b9150509250925092565b6000806000806080858703121561153057600080fd5b600085013567ffffffffffffffff81111561154a57600080fd5b611556878288016113dd565b945050602085013567ffffffffffffffff81111561157357600080fd5b61157f878288016113dd565b935050604085013567ffffffffffffffff81111561159c57600080fd5b6115a8878288016113dd565b925050606085013567ffffffffffffffff8111156115c557600080fd5b6115d1878288016113dd565b91505092959194509250565b60006115e98383611711565b60208301905092915050565b60006116018383611ab8565b905092915050565b6116128161210f565b82525050565b6116218161210f565b82525050565b6116386116338261210f565b6121e5565b82525050565b60006116498261205c565b6116538185612097565b935061165e83612027565b8060005b8381101561168f57815161167688826115dd565b97506116818361207d565b925050600181019050611662565b5085935050505092915050565b60006116a782612067565b6116b181856120a8565b9350836020820285016116c385612037565b8060005b858110156116ff57848403895281516116e085826115f5565b94506116eb8361208a565b925060208a019950506001810190506116c7565b50829750879550505050505092915050565b61171a81612121565b82525050565b61172981612121565b82525050565b600061173a82612072565b61174481856120b9565b9350611754818560208601612164565b61175d81612213565b840191505092915050565b60008154600181166000811461178557600181146117ab576117ef565b607f600283041661179681876120b9565b955060ff1983168652602086019350506117ef565b600282046117b981876120b9565b95506117c485612047565b60005b828110156117e6578154818901526001820191506020810190506117c7565b80880195505050505b505092915050565b600081546001811660008114611814576001811461183a5761187e565b607f600283041661182581876120ca565b955060ff19831686526020860193505061187e565b6002820461184881876120ca565b955061185385612047565b60005b8281101561187557815481890152600182019150602081019050611856565b80880195505050505b505092915050565b6000611893602a836120ca565b91507f4e616d652063616e206e6f7420626520626c616e6b20647572696e672075736560008301527f72206372656174696f6e000000000000000000000000000000000000000000006020830152604082019050919050565b60006118f96018836120ca565b91507f426c6f672069642063616e206e6f7420626520626c616e6b00000000000000006000830152602082019050919050565b60006119396023836120ca565b91507f4f6e6c7920617574686f722063616e20757064617465206869732f686572206260008301527f6c6f6700000000000000000000000000000000000000000000000000000000006020830152604082019050919050565b600061199f601d836120ca565b91507f426c6f6720636f6e74656e742063616e206e6f7420626520626c616e6b0000006000830152602082019050919050565b60006119df601b836120ca565b91507f426c6f67207469746c652063616e206e6f7420626520626c616e6b00000000006000830152602082019050919050565b6000611a1f601c836120ca565b91507f7573657220616464726573732073686f756c64206265206578697374000000006000830152602082019050919050565b6000611a5f602b836120ca565b91507f456d61696c2063616e206e6f7420626520626c616e6b20647572696e6720757360008301527f6572206372656174696f6e0000000000000000000000000000000000000000006020830152604082019050919050565b600060e083016000830151611ad06000860182611d47565b5060208301518482036020860152611ae88282611c8e565b9150506040830151611afd6040860182611711565b5060608301518482036060860152611b15828261172f565b9150506080830151611b2a6080860182611d47565b5060a0830151611b3d60a0860182611d47565b5060c083015184820360c0860152611b55828261172f565b9150508091505092915050565b600060e083016000808401549050611b79816121cb565b611b866000870182611d47565b50600184018583036020870152611b9d8382611ce5565b92505060048401549050611bb0816121b1565b611bbd6040870182611711565b50600584018583036060870152611bd48382611768565b92505060068401549050611be7816121cb565b611bf46080870182611d47565b5060078401549050611c05816121cb565b611c1260a0870182611d47565b506008840185830360c0870152611c298382611768565b925050819250505092915050565b6000606083016000830151611c4f6000860182611609565b5060208301518482036020860152611c67828261172f565b91505060408301518482036040860152611c81828261172f565b9150508091505092915050565b6000606083016000830151611ca66000860182611609565b5060208301518482036020860152611cbe828261172f565b91505060408301518482036040860152611cd8828261172f565b9150508091505092915050565b6000606083016000808401549050611cfc81612197565b611d096000870182611609565b50600184018583036020870152611d208382611768565b925050600284018583036040870152611d398382611768565b925050819250505092915050565b611d508161214b565b82525050565b611d67611d628261214b565b612209565b82525050565b6000611d798285611d56565b602082019150611d898284611627565b6014820191508190509392505050565b6000606082019050611dae6000830186611618565b8181036020830152611dc081856117f7565b90508181036040830152611dd481846117f7565b9050949350505050565b6000604082019050611df36000830185611618565b8181036020830152611e058184611b62565b90509392505050565b60006020820190508181036000830152611e28818461163e565b905092915050565b60006020820190508181036000830152611e4a818461169c565b905092915050565b6000604082019050611e676000830185611720565b8181036020830152611e798184611b62565b90509392505050565b60006020820190508181036000830152611e9b81611886565b9050919050565b60006020820190508181036000830152611ebb816118ec565b9050919050565b60006020820190508181036000830152611edb8161192c565b9050919050565b60006020820190508181036000830152611efb81611992565b9050919050565b60006020820190508181036000830152611f1b816119d2565b9050919050565b60006020820190508181036000830152611f3b81611a12565b9050919050565b60006020820190508181036000830152611f5b81611a52565b9050919050565b60006020820190508181036000830152611f7c8184611b62565b905092915050565b60006020820190508181036000830152611f9e8184611c37565b905092915050565b6000604051905081810181811067ffffffffffffffff82111715611fc957600080fd5b8060405250919050565b600067ffffffffffffffff821115611fea57600080fd5b602082029050602081019050919050565b600067ffffffffffffffff82111561201257600080fd5b601f19601f8301169050602081019050919050565b6000819050602082019050919050565b6000819050602082019050919050565b60008190508160005260206000209050919050565b600081519050919050565b600081519050919050565b600081519050919050565b6000602082019050919050565b6000602082019050919050565b600082825260208201905092915050565b600082825260208201905092915050565b600082825260208201905092915050565b600082825260208201905092915050565b600073ffffffffffffffffffffffffffffffffffffffff82169050919050565b6000819050919050565b6000819050919050565b600061211a8261212b565b9050919050565b6000819050919050565b600073ffffffffffffffffffffffffffffffffffffffff82169050919050565b6000819050919050565b82818337600083830152505050565b60005b83811015612182578082015181840152602081019050612167565b83811115612191576000848401525b50505050565b60006121aa6121a583612231565b6120db565b9050919050565b60006121c46121bf83612231565b6120fb565b9050919050565b60006121de6121d983612231565b612105565b9050919050565b60006121f0826121f7565b9050919050565b600061220282612224565b9050919050565b6000819050919050565b6000601f19601f8301169050919050565b60008160601b9050919050565b60008160001c9050919050565b6122478161210f565b811461225257600080fd5b50565b61225e81612121565b811461226957600080fd5b5056fea365627a7a7231582010aa875db4867fa46c2969fafd64c6ddfd89242ced7b2b1fc491ba020a9f2c076c6578706572696d656e74616cf564736f6c63430005100040",
  "source": "pragma experimental ABIEncoderV2;\n\ncontract Medium {\n  struct UserDetail {\n    address id;\n    string name;\n    string email;\n  }\n\n  struct Blog {\n    uint256 blockNumber;\n    UserDetail createdBy;\n    bytes32 id; //generate id from hash of publishedat;\n    string title;\n    uint256 publishedAt;\n    uint256 lastUpdatedAt;\n    string content;\n  }\n\n  mapping(address => bytes32[]) private userToBlogMapping;\n  mapping(bytes32 => Blog) private blogs;\n  bytes32[] private blogIds;\n  mapping(address => UserDetail) private users;\n\n  event userCreated(address id, string name, string email);\n  event blogPublished(Blog thisBlog);\n  event userToBlogMappingUpdated(address userId, Blog blog);\n  event blogUpdated(bytes32 id, Blog blog);\n\n  function getUser(address id) public view returns (UserDetail memory) {\n    return users[id];\n  }\n\n  // create user\n  function createUser(string memory name, string memory email) private {\n    require(\n      bytes(name).length > 0,\n      \"Name can not be blank during user creation\"\n    );\n    require(\n      bytes(email).length > 0,\n      \"Email can not be blank during user creation\"\n    );\n    require(msg.sender != address(0 * 0), \"user address should be exist\");\n\n    UserDetail memory user = UserDetail(msg.sender, name, email);\n    users[msg.sender] = user;\n    emit userCreated(\n      users[msg.sender].id,\n      users[msg.sender].name,\n      users[msg.sender].email\n    );\n  }\n\n  // create blog\n  function createBlog(\n    string memory name,\n    string memory email,\n    string memory title,\n    string memory content\n  ) public {\n    UserDetail memory user = getUser(msg.sender);\n    if (user.id != msg.sender) {\n      createUser(name, email);\n      user = getUser(msg.sender);\n    }\n\n    require(bytes(title).length > 0, \"Blog title can not be blank\");\n    require(bytes(content).length > 0, \"Blog content can not be blank\");\n\n    uint256 currentTime = block.timestamp;\n    bytes32 id = keccak256(abi.encodePacked(currentTime, user.id));\n    Blog memory blog = Blog(\n      block.number,\n      user,\n      id,\n      title,\n      currentTime,\n      currentTime,\n      content\n    );\n\n    blogs[blog.id] = blog;\n    blogIds.push(blog.id);\n    emit blogPublished(blogs[blog.id]);\n    userToBlogMapping[user.id].push(blog.id);\n    emit userToBlogMappingUpdated(user.id, blogs[blog.id]);\n  }\n\n  // update blog\n  function updateBlog(\n    bytes32 blogId,\n    string memory title,\n    string memory content\n  ) public {\n    require(blogId != bytes32(0), \"Blog id can not be blank\");\n    require(bytes(title).length > 0, \"Blog title can not be blank\");\n    require(bytes(content).length > 0, \"Blog content can not be blank\");\n    require(\n      msg.sender == blogs[blogId].createdBy.id,\n      \"Only author can update his/her blog\"\n    );\n\n    blogs[blogId].title = title;\n    blogs[blogId].content = content;\n    blogs[blogId].lastUpdatedAt = block.timestamp;\n    blogs[blogId].blockNumber = block.number;\n\n    emit blogUpdated(blogId, blogs[blogId]);\n  }\n\n  //get blog by user\n  function getBlogIdsByUserId(address userId)\n    public\n    view\n    returns (bytes32[] memory)\n  {\n    return userToBlogMapping[userId];\n  }\n\n  //get all blog\n  function getAllBlogIds() public view returns (bytes32[] memory) {\n    return blogIds;\n  }\n\n  //get blogs by thier ids\n  function getBlogsByIds(bytes32[] memory idList)\n    public\n    view\n    returns (Blog[] memory)\n  {\n    Blog[] memory blogList = new Blog[](idList.length);\n    for (uint256 i = 0; i < idList.length; i++) {\n      blogList[i] = blogs[idList[i]];\n    }\n    return blogList;\n  }\n}\n",
  "sourcePath": "/home/kishan/Desktop/mediumDecentralize/src/contracts/Medium.sol",
  "compiler": {
    "name": "solc",
    "version": "0.5.16+commit.9c3226ce.Emscripten.clang"
  },
  "schemaVersion": "3.4.3",
  "updatedAt": "2021-11-04T01:43:21.794Z",
  "networkType": "ethereum",
  "devdoc": {
    "methods": {}
  },
  "userdoc": {
    "methods": {}
  }
}